{
  "contractName": "UploadEvidences",
  "abi": [
    {
      "anonymous": false,
      "inputs": [
        {
          "indexed": true,
          "name": "registry",
          "type": "address"
        },
        {
          "indexed": true,
          "name": "evidencedIdHash",
          "type": "bytes32"
        },
        {
          "indexed": false,
          "name": "evidenceHash",
          "type": "string"
        },
        {
          "indexed": true,
          "name": "evidencer",
          "type": "address"
        }
      ],
      "name": "UploadEvidenceEvent",
      "type": "event"
    },
    {
      "constant": true,
      "inputs": [
        {
          "name": "evidenceHash",
          "type": "string"
        }
      ],
      "name": "getEvidenceExistence",
      "outputs": [
        {
          "name": "",
          "type": "bool"
        }
      ],
      "payable": false,
      "stateMutability": "view",
      "type": "function"
    },
    {
      "constant": false,
      "inputs": [
        {
          "name": "registry",
          "type": "address"
        },
        {
          "name": "evidencedId",
          "type": "string"
        },
        {
          "name": "evidenceHash",
          "type": "string"
        }
      ],
      "name": "addEvidence",
      "outputs": [],
      "payable": false,
      "stateMutability": "nonpayable",
      "type": "function"
    }
  ],
  "bytecode": "0x608060405234801561001057600080fd5b50610608806100206000396000f30060806040526004361061004c576000357c0100000000000000000000000000000000000000000000000000000000900463ffffffff16806369291ed0146100515780637a079d3114610120575b600080fd5b34801561005d57600080fd5b5061011e600480360381019080803573ffffffffffffffffffffffffffffffffffffffff169060200190929190803590602001908201803590602001908080601f0160208091040260200160405190810160405280939291908181526020018383808284378201915050505050509192919290803590602001908201803590602001908080601f01602080910402602001604051908101604052809392919081815260200183838082843782019150505050505091929192905050506101a1565b005b34801561012c57600080fd5b50610187600480360381019080803590602001908201803590602001908080601f016020809104026020016040519081016040528093929190818152602001838380828437820191505050505050919291929050505061055b565b604051808215151515815260200191505060405180910390f35b6000816040518082805190602001908083835b6020831015156101d957805182526020820191506020810190506020830392506101b4565b6001836020036101000a038019825116818451168082178552505050505050905001915050908152602001604051809103902060009054906101000a900460ff161515156102b5576040517f08c379a00000000000000000000000000000000000000000000000000000000081526004018080602001828103825260288152602001807f5468652065766964656e636520686173206265656e20616c726561647920726581526020017f676973746572656400000000000000000000000000000000000000000000000081525060400191505060405180910390fd5b8273ffffffffffffffffffffffffffffffffffffffff166351a94a5f836040518263ffffffff167c01000000000000000000000000000000000000000000000000000000000281526004018080602001828103825283818151815260200191508051906020019080838360005b8381101561033d578082015181840152602081019050610322565b50505050905090810190601f16801561036a5780820380516001836020036101000a031916815260200191505b5092505050600060405180830381600087803b15801561038957600080fd5b505af115801561039d573d6000803e3d6000fd5b5050505060016000826040518082805190602001908083835b6020831015156103db57805182526020820191506020810190506020830392506103b6565b6001836020036101000a038019825116818451168082178552505050505050905001915050908152602001604051809103902060006101000a81548160ff0219169083151502179055503373ffffffffffffffffffffffffffffffffffffffff16826040518082805190602001908083835b602083101515610472578051825260208201915060208101905060208303925061044d565b6001836020036101000a0380198251168184511680821785525050505050509050019150506040518091039020600019168473ffffffffffffffffffffffffffffffffffffffff167f47775da763b80a0b48a0dbb74fb3ce2feee734c532c8d1d1e6ad213e2e485d1e846040518080602001828103825283818151815260200191508051906020019080838360005b8381101561051c578082015181840152602081019050610501565b50505050905090810190601f1680156105495780820380516001836020036101000a031916815260200191505b509250505060405180910390a4505050565b600080826040518082805190602001908083835b602083101515610594578051825260208201915060208101905060208303925061056f565b6001836020036101000a038019825116818451168082178552505050505050905001915050908152602001604051809103902060009054906101000a900460ff1690509190505600a165627a7a723058205b55f79bca48eb94df3d68717b4711479c8882609f63c7c422ad43dfd11d96730029",
  "source": "pragma solidity ^0.4.24;\n\nimport \"./Evidencable.sol\";\n\n/// @title Contract to register evidence based on uploading content to IPFS\n/// @author Roberto García (http://rhizomik.net/~roberto/)\ncontract UploadEvidences {\n\n    /// @notice Allows checking if some content has already been used as evidence.\n    mapping(string => bool) private existingEvidence;\n\n    event UploadEvidenceEvent(address indexed registry, bytes32 indexed evidencedIdHash,\n        string evidenceHash, address indexed evidencer);\n\n    /// @notice Get if the evidence with content hash `evidenceHash` is already registered.\n    /// @param evidenceHash Hash of the evidence content, for instance IPFS Base58 Hash\n    function getEvidenceExistence(string evidenceHash) public constant returns (bool) {\n        return existingEvidence[evidenceHash];\n    }\n\n    /// @notice Add evidence for item in `registry` identified by `evidencedId`. The evidence\n    /// has `evidenceHash` and registered by `msg.sender`.\n    /// @dev The address of the registry containing the evidenced item is required to update\n    /// its evidence count. Evidence is stored just in the log as UploadEvidenceEvent events.\n    /// Note: the evidenceId is hashed using keccak256 before emitting the event so it can be indexed.\n    /// @param registry The address of the contract holding the items evidenced\n    /// @param evidencedId The identifier used by the registry contract for the item receiving evidence\n    /// @param evidenceHash Hash of the uploaded content to be used as evidence, for instance IPFS Base58 Hash\n    function addEvidence(address registry, string evidencedId, string evidenceHash) public {\n        require(!existingEvidence[evidenceHash], \"The evidence has been already registered\");\n        Evidencable(registry).addEvidence(evidencedId);\n        existingEvidence[evidenceHash] = true;\n        emit UploadEvidenceEvent(registry, keccak256(evidencedId), evidenceHash, msg.sender);\n    }\n}\n",
  "sourcePath": "/Users/roberto/Proyectos/InVID/WP4/copyrightly.eth/contracts/UploadEvidences.sol",
  "compiler": {
    "name": "solc",
    "version": "0.4.24+commit.e67f0147.Emscripten.clang"
  },
  "schemaVersion": "2.0.1",
  "updatedAt": "2018-09-11T08:13:51.907Z"
}