{
  "contractName": "YouTubeEvidences",
  "abi": [
    {
      "constant": true,
      "inputs": [
        {
          "name": "",
          "type": "bytes32"
        }
      ],
      "name": "evidences",
      "outputs": [
        {
          "name": "registry",
          "type": "address"
        },
        {
          "name": "evidencer",
          "type": "address"
        },
        {
          "name": "evidencedId",
          "type": "string"
        },
        {
          "name": "videoId",
          "type": "string"
        },
        {
          "name": "isPending",
          "type": "bool"
        },
        {
          "name": "isVerified",
          "type": "bool"
        }
      ],
      "payable": false,
      "stateMutability": "view",
      "type": "function"
    },
    {
      "inputs": [
        {
          "name": "gasPrice",
          "type": "uint256"
        }
      ],
      "payable": false,
      "stateMutability": "nonpayable",
      "type": "constructor"
    },
    {
      "anonymous": false,
      "inputs": [
        {
          "indexed": false,
          "name": "evidenceId",
          "type": "bytes32"
        }
      ],
      "name": "OraclizeQuery",
      "type": "event"
    },
    {
      "anonymous": false,
      "inputs": [
        {
          "indexed": false,
          "name": "evidenceId",
          "type": "bytes32"
        },
        {
          "indexed": true,
          "name": "evidencedIdHash",
          "type": "bytes32"
        },
        {
          "indexed": false,
          "name": "videoId",
          "type": "string"
        },
        {
          "indexed": true,
          "name": "evidencer",
          "type": "address"
        }
      ],
      "name": "YouTubeEvidenceEvent",
      "type": "event"
    },
    {
      "constant": false,
      "inputs": [
        {
          "name": "evidenceId",
          "type": "bytes32"
        },
        {
          "name": "properLinksCount",
          "type": "string"
        }
      ],
      "name": "__callback",
      "outputs": [],
      "payable": false,
      "stateMutability": "nonpayable",
      "type": "function"
    },
    {
      "constant": false,
      "inputs": [
        {
          "name": "myid",
          "type": "bytes32"
        },
        {
          "name": "result",
          "type": "string"
        },
        {
          "name": "proof",
          "type": "bytes"
        }
      ],
      "name": "__callback",
      "outputs": [],
      "payable": false,
      "stateMutability": "nonpayable",
      "type": "function"
    },
    {
      "constant": false,
      "inputs": [
        {
          "name": "registry",
          "type": "address"
        },
        {
          "name": "evidencedId",
          "type": "string"
        },
        {
          "name": "videoId",
          "type": "string"
        },
        {
          "name": "gaslimit",
          "type": "uint256"
        }
      ],
      "name": "check",
      "outputs": [],
      "payable": true,
      "stateMutability": "payable",
      "type": "function"
    },
    {
      "constant": true,
      "inputs": [
        {
          "name": "gaslimit",
          "type": "uint256"
        }
      ],
      "name": "getPrice",
      "outputs": [
        {
          "name": "",
          "type": "uint256"
        }
      ],
      "payable": false,
      "stateMutability": "view",
      "type": "function"
    }
  ],
  "bytecode": "0x60806040523480156200001157600080fd5b50604051602080620032e5833981018060405281019080805190602001909291905050506200004f8162000056640100000000026401000000009004565b5062000a16565b60008060009054906101000a900473ffffffffffffffffffffffffffffffffffffffff1673ffffffffffffffffffffffffffffffffffffffff161480620000d757506000620000d56000809054906101000a900473ffffffffffffffffffffffffffffffffffffffff16620003c6640100000000026401000000009004565b145b15620000fa57620000f86000620003d1640100000000026401000000009004565b505b6000809054906101000a900473ffffffffffffffffffffffffffffffffffffffff1673ffffffffffffffffffffffffffffffffffffffff166338cc48316040518163ffffffff167c0100000000000000000000000000000000000000000000000000000000028152600401602060405180830381600087803b1580156200018057600080fd5b505af115801562000195573d6000803e3d6000fd5b505050506040513d6020811015620001ac57600080fd5b810190808051906020019092919050505073ffffffffffffffffffffffffffffffffffffffff16600160009054906101000a900473ffffffffffffffffffffffffffffffffffffffff1673ffffffffffffffffffffffffffffffffffffffff1614151562000318576000809054906101000a900473ffffffffffffffffffffffffffffffffffffffff1673ffffffffffffffffffffffffffffffffffffffff166338cc48316040518163ffffffff167c0100000000000000000000000000000000000000000000000000000000028152600401602060405180830381600087803b1580156200029a57600080fd5b505af1158015620002af573d6000803e3d6000fd5b505050506040513d6020811015620002c657600080fd5b8101908080519060200190929190505050600160006101000a81548173ffffffffffffffffffffffffffffffffffffffff021916908373ffffffffffffffffffffffffffffffffffffffff1602179055505b600160009054906101000a900473ffffffffffffffffffffffffffffffffffffffff1673ffffffffffffffffffffffffffffffffffffffff1663ca6ad1e4826040518263ffffffff167c010000000000000000000000000000000000000000000000000000000002815260040180828152602001915050600060405180830381600087803b158015620003aa57600080fd5b505af1158015620003bf573d6000803e3d6000fd5b5050505050565b6000813b9050919050565b6000620003ec620003f3640100000000026401000000009004565b9050919050565b60008062000424731d3b2638a7cc9f2cb3d298a3da7a90b67e5506ed620003c6640100000000026401000000009004565b1115620004d857731d3b2638a7cc9f2cb3d298a3da7a90b67e5506ed6000806101000a81548173ffffffffffffffffffffffffffffffffffffffff021916908373ffffffffffffffffffffffffffffffffffffffff160217905550620004ce6040805190810160405280600b81526020017f6574685f6d61696e6e65740000000000000000000000000000000000000000008152506200094b640100000000026401000000009004565b6001905062000948565b60006200050873c03a2615d5efaf5f49f60b7bb6583eaec212fdf1620003c6640100000000026401000000009004565b1115620005bc5773c03a2615d5efaf5f49f60b7bb6583eaec212fdf16000806101000a81548173ffffffffffffffffffffffffffffffffffffffff021916908373ffffffffffffffffffffffffffffffffffffffff160217905550620005b26040805190810160405280600c81526020017f6574685f726f707374656e3300000000000000000000000000000000000000008152506200094b640100000000026401000000009004565b6001905062000948565b6000620005ec73b7a07bcf2ba2f2703b24c0691b5278999c59ac7e620003c6640100000000026401000000009004565b1115620006a05773b7a07bcf2ba2f2703b24c0691b5278999c59ac7e6000806101000a81548173ffffffffffffffffffffffffffffffffffffffff021916908373ffffffffffffffffffffffffffffffffffffffff160217905550620006966040805190810160405280600981526020017f6574685f6b6f76616e00000000000000000000000000000000000000000000008152506200094b640100000000026401000000009004565b6001905062000948565b6000620006d073146500cfd35b22e4a392fe0adc06de1a1368ed48620003c6640100000000026401000000009004565b1115620007845773146500cfd35b22e4a392fe0adc06de1a1368ed486000806101000a81548173ffffffffffffffffffffffffffffffffffffffff021916908373ffffffffffffffffffffffffffffffffffffffff1602179055506200077a6040805190810160405280600b81526020017f6574685f72696e6b6562790000000000000000000000000000000000000000008152506200094b640100000000026401000000009004565b6001905062000948565b6000620007b4736f485c8bf6fc43ea212e93bbf8ce046c7f1cb475620003c6640100000000026401000000009004565b11156200081957736f485c8bf6fc43ea212e93bbf8ce046c7f1cb4756000806101000a81548173ffffffffffffffffffffffffffffffffffffffff021916908373ffffffffffffffffffffffffffffffffffffffff1602179055506001905062000948565b6000620008497320e12a1f859b3feae5fb2a0a32c18f5a65555bbf620003c6640100000000026401000000009004565b1115620008ae577320e12a1f859b3feae5fb2a0a32c18f5a65555bbf6000806101000a81548173ffffffffffffffffffffffffffffffffffffffff021916908373ffffffffffffffffffffffffffffffffffffffff1602179055506001905062000948565b6000620008de7351efaf4c8b3c9afbd5ab9f4bbc82784ab6ef8faa620003c6640100000000026401000000009004565b111562000943577351efaf4c8b3c9afbd5ab9f4bbc82784ab6ef8faa6000806101000a81548173ffffffffffffffffffffffffffffffffffffffff021916908373ffffffffffffffffffffffffffffffffffffffff1602179055506001905062000948565b600090505b90565b80600290805190602001906200096392919062000967565b5050565b828054600181600116156101000203166002900490600052602060002090601f016020900481019282601f10620009aa57805160ff1916838001178555620009db565b82800160010185558215620009db579182015b82811115620009da578251825591602001919060010190620009bd565b5b509050620009ea9190620009ee565b5090565b62000a1391905b8082111562000a0f576000816000905550600101620009f5565b5090565b90565b6128bf8062000a266000396000f30060806040526004361061006d576000357c0100000000000000000000000000000000000000000000000000000000900463ffffffff16806327dc297e1461007257806338bbfa50146100e957806383c34e57146101a6578063d84c09de14610272578063e757223014610404575b600080fd5b34801561007e57600080fd5b506100e76004803603810190808035600019169060200190929190803590602001908201803590602001908080601f0160208091040260200160405190810160405280939291908181526020018383808284378201915050505050509192919290505050610445565b005b3480156100f557600080fd5b506101a46004803603810190808035600019169060200190929190803590602001908201803590602001908080601f0160208091040260200160405190810160405280939291908181526020018383808284378201915050505050509192919290803590602001908201803590602001908080601f016020809104026020016040519081016040528093929190818152602001838380828437820191505050505050919291929050505061086a565b005b610270600480360381019080803573ffffffffffffffffffffffffffffffffffffffff169060200190929190803590602001908201803590602001908080601f0160208091040260200160405190810160405280939291908181526020018383808284378201915050505050509192919290803590602001908201803590602001908080601f01602080910402602001604051908101604052809392919081815260200183838082843782019150505050505091929192908035906020019092919050505061086f565b005b34801561027e57600080fd5b506102a16004803603810190808035600019169060200190929190505050610c97565b604051808773ffffffffffffffffffffffffffffffffffffffff1673ffffffffffffffffffffffffffffffffffffffff1681526020018673ffffffffffffffffffffffffffffffffffffffff1673ffffffffffffffffffffffffffffffffffffffff16815260200180602001806020018515151515815260200184151515158152602001838103835287818151815260200191508051906020019080838360005b8381101561035d578082015181840152602081019050610342565b50505050905090810190601f16801561038a5780820380516001836020036101000a031916815260200191505b50838103825286818151815260200191508051906020019080838360005b838110156103c35780820151818401526020810190506103a8565b50505050905090810190601f1680156103f05780820380516001836020036101000a031916815260200191505b509850505050505050505060405180910390f35b34801561041057600080fd5b5061042f60048036038101908080359060200190929190505050610e5d565b6040518082815260200191505060405180910390f35b61044d610ea5565b73ffffffffffffffffffffffffffffffffffffffff163373ffffffffffffffffffffffffffffffffffffffff1614151561048657600080fd5b60056000836000191660001916815260200190815260200160002060040160009054906101000a900460ff1615156104bd57600080fd5b600060056000846000191660001916815260200190815260200160002060040160006101000a81548160ff02191690831515021790555060006104ff82611203565b11156108665760056000836000191660001916815260200190815260200160002060000160009054906101000a900473ffffffffffffffffffffffffffffffffffffffff1673ffffffffffffffffffffffffffffffffffffffff166351a94a5f6005600085600019166000191681526020019081526020016000206002016040518263ffffffff167c010000000000000000000000000000000000000000000000000000000002815260040180806020018281038252838181546001816001161561010002031660029004815260200191508054600181600116156101000203166002900480156106315780601f1061060657610100808354040283529160200191610631565b820191906000526020600020905b81548152906001019060200180831161061457829003601f168201915b505092505050600060405180830381600087803b15801561065157600080fd5b505af1158015610665573d6000803e3d6000fd5b50505050600160056000846000191660001916815260200190815260200160002060040160016101000a81548160ff02191690831515021790555060056000836000191660001916815260200190815260200160002060010160009054906101000a900473ffffffffffffffffffffffffffffffffffffffff1673ffffffffffffffffffffffffffffffffffffffff16600560008460001916600019168152602001908152602001600020600201604051808280546001816001161561010002031660029004801561076e5780601f1061074c57610100808354040283529182019161076e565b820191906000526020600020905b81548152906001019060200180831161075a575b50509150506040518091039020600019167f8877faee1c7a6fff48753701fd099268bb310d00917f7f07e6542d5aa875e21384600560008760001916600019168152602001908152602001600020600301604051808360001916600019168152602001806020018281038252838181546001816001161561010002031660029004815260200191508054600181600116156101000203166002900480156108565780601f1061082b57610100808354040283529160200191610856565b820191906000526020600020905b81548152906001019060200180831161083957829003601f168201915b5050935050505060405180910390a35b5050565b505050565b606060006108b26040805190810160405280600381526020017f55524c000000000000000000000000000000000000000000000000000000000081525084611217565b3073ffffffffffffffffffffffffffffffffffffffff163110151515610966576040517f08c379a00000000000000000000000000000000000000000000000000000000081526004018080602001828103825260268152602001807f4e6f7420656e6f7567682066756e647320746f2072756e204f7261636c697a6581526020017f207175657279000000000000000000000000000000000000000000000000000081525060400191505060405180910390fd5b610a86606060405190810160405280602581526020017f68746d6c2868747470733a2f2f7777772e796f75747562652e636f6d2f77617481526020017f63683f763d00000000000000000000000000000000000000000000000000000081525085608060405190810160405280604481526020017f292e787061746828636f756e74282f2f6469765b636f6e7461696e732840696481526020017f2c276465736372697074696f6e27295d2f2f615b636f6e7461696e732840687281526020017f65662c2700000000000000000000000000000000000000000000000000000000815250886040805190810160405280600581526020017f27295d29290000000000000000000000000000000000000000000000000000008152506115f0565b9150610ac86040805190810160405280600381526020017f55524c00000000000000000000000000000000000000000000000000000000008152508385611a05565b905060c0604051908101604052808773ffffffffffffffffffffffffffffffffffffffff1681526020013373ffffffffffffffffffffffffffffffffffffffff1681526020018681526020018581526020016001151581526020016000151581525060056000836000191660001916815260200190815260200160002060008201518160000160006101000a81548173ffffffffffffffffffffffffffffffffffffffff021916908373ffffffffffffffffffffffffffffffffffffffff16021790555060208201518160010160006101000a81548173ffffffffffffffffffffffffffffffffffffffff021916908373ffffffffffffffffffffffffffffffffffffffff1602179055506040820151816002019080519060200190610bef92919061276e565b506060820151816003019080519060200190610c0c92919061276e565b5060808201518160040160006101000a81548160ff02191690831515021790555060a08201518160040160016101000a81548160ff0219169083151502179055509050507f971b0866f91e6150f522277231ed5889fe16b939e5722a33b17a48b6fa0442cb8160405180826000191660001916815260200191505060405180910390a1505050505050565b60056020528060005260406000206000915090508060000160009054906101000a900473ffffffffffffffffffffffffffffffffffffffff16908060010160009054906101000a900473ffffffffffffffffffffffffffffffffffffffff1690806002018054600181600116156101000203166002900480601f016020809104026020016040519081016040528092919081815260200182805460018160011615610100020316600290048015610d8f5780601f10610d6457610100808354040283529160200191610d8f565b820191906000526020600020905b815481529060010190602001808311610d7257829003601f168201915b505050505090806003018054600181600116156101000203166002900480601f016020809104026020016040519081016040528092919081815260200182805460018160011615610100020316600290048015610e2d5780601f10610e0257610100808354040283529160200191610e2d565b820191906000526020600020905b815481529060010190602001808311610e1057829003601f168201915b5050505050908060040160009054906101000a900460ff16908060040160019054906101000a900460ff16905086565b6000610e9e6040805190810160405280600381526020017f55524c000000000000000000000000000000000000000000000000000000000081525083611217565b9050919050565b6000806000809054906101000a900473ffffffffffffffffffffffffffffffffffffffff1673ffffffffffffffffffffffffffffffffffffffff161480610f1557506000610f136000809054906101000a900473ffffffffffffffffffffffffffffffffffffffff16611fb5565b145b15610f2657610f246000611fc0565b505b6000809054906101000a900473ffffffffffffffffffffffffffffffffffffffff1673ffffffffffffffffffffffffffffffffffffffff166338cc48316040518163ffffffff167c0100000000000000000000000000000000000000000000000000000000028152600401602060405180830381600087803b158015610fab57600080fd5b505af1158015610fbf573d6000803e3d6000fd5b505050506040513d6020811015610fd557600080fd5b810190808051906020019092919050505073ffffffffffffffffffffffffffffffffffffffff16600160009054906101000a900473ffffffffffffffffffffffffffffffffffffffff1673ffffffffffffffffffffffffffffffffffffffff1614151561113d576000809054906101000a900473ffffffffffffffffffffffffffffffffffffffff1673ffffffffffffffffffffffffffffffffffffffff166338cc48316040518163ffffffff167c0100000000000000000000000000000000000000000000000000000000028152600401602060405180830381600087803b1580156110c157600080fd5b505af11580156110d5573d6000803e3d6000fd5b505050506040513d60208110156110eb57600080fd5b8101908080519060200190929190505050600160006101000a81548173ffffffffffffffffffffffffffffffffffffffff021916908373ffffffffffffffffffffffffffffffffffffffff1602179055505b600160009054906101000a900473ffffffffffffffffffffffffffffffffffffffff1673ffffffffffffffffffffffffffffffffffffffff1663c281d19e6040518163ffffffff167c0100000000000000000000000000000000000000000000000000000000028152600401602060405180830381600087803b1580156111c357600080fd5b505af11580156111d7573d6000803e3d6000fd5b505050506040513d60208110156111ed57600080fd5b8101908080519060200190929190505050905090565b6000611210826000611fd1565b9050919050565b6000806000809054906101000a900473ffffffffffffffffffffffffffffffffffffffff1673ffffffffffffffffffffffffffffffffffffffff161480611287575060006112856000809054906101000a900473ffffffffffffffffffffffffffffffffffffffff16611fb5565b145b15611298576112966000611fc0565b505b6000809054906101000a900473ffffffffffffffffffffffffffffffffffffffff1673ffffffffffffffffffffffffffffffffffffffff166338cc48316040518163ffffffff167c0100000000000000000000000000000000000000000000000000000000028152600401602060405180830381600087803b15801561131d57600080fd5b505af1158015611331573d6000803e3d6000fd5b505050506040513d602081101561134757600080fd5b810190808051906020019092919050505073ffffffffffffffffffffffffffffffffffffffff16600160009054906101000a900473ffffffffffffffffffffffffffffffffffffffff1673ffffffffffffffffffffffffffffffffffffffff161415156114af576000809054906101000a900473ffffffffffffffffffffffffffffffffffffffff1673ffffffffffffffffffffffffffffffffffffffff166338cc48316040518163ffffffff167c0100000000000000000000000000000000000000000000000000000000028152600401602060405180830381600087803b15801561143357600080fd5b505af1158015611447573d6000803e3d6000fd5b505050506040513d602081101561145d57600080fd5b8101908080519060200190929190505050600160006101000a81548173ffffffffffffffffffffffffffffffffffffffff021916908373ffffffffffffffffffffffffffffffffffffffff1602179055505b600160009054906101000a900473ffffffffffffffffffffffffffffffffffffffff1673ffffffffffffffffffffffffffffffffffffffff16632ef3accc84846040518363ffffffff167c01000000000000000000000000000000000000000000000000000000000281526004018080602001838152602001828103825284818151815260200191508051906020019080838360005b83811015611560578082015181840152602081019050611545565b50505050905090810190601f16801561158d5780820380516001836020036101000a031916815260200191505b509350505050602060405180830381600087803b1580156115ad57600080fd5b505af11580156115c1573d6000803e3d6000fd5b505050506040513d60208110156115d757600080fd5b8101908080519060200190929190505050905092915050565b6060806060806060806060806000808e98508d97508c96508b95508a94508451865188518a518c51010101016040519080825280601f01601f19166020018201604052801561164e5781602001602082028038833980820191505090505b50935083925060009150600090505b885181101561171057888181518110151561167457fe5b9060200101517f010000000000000000000000000000000000000000000000000000000000000090047f01000000000000000000000000000000000000000000000000000000000000000283838060010194508151811015156116d357fe5b9060200101907effffffffffffffffffffffffffffffffffffffffffffffffffffffffffffff1916908160001a905350808060010191505061165d565b600090505b87518110156117c857878181518110151561172c57fe5b9060200101517f010000000000000000000000000000000000000000000000000000000000000090047f010000000000000000000000000000000000000000000000000000000000000002838380600101945081518110151561178b57fe5b9060200101907effffffffffffffffffffffffffffffffffffffffffffffffffffffffffffff1916908160001a9053508080600101915050611715565b600090505b86518110156118805786818151811015156117e457fe5b9060200101517f010000000000000000000000000000000000000000000000000000000000000090047f010000000000000000000000000000000000000000000000000000000000000002838380600101945081518110151561184357fe5b9060200101907effffffffffffffffffffffffffffffffffffffffffffffffffffffffffffff1916908160001a90535080806001019150506117cd565b600090505b855181101561193857858181518110151561189c57fe5b9060200101517f010000000000000000000000000000000000000000000000000000000000000090047f01000000000000000000000000000000000000000000000000000000000000000283838060010194508151811015156118fb57fe5b9060200101907effffffffffffffffffffffffffffffffffffffffffffffffffffffffffffff1916908160001a9053508080600101915050611885565b600090505b84518110156119f057848181518110151561195457fe5b9060200101517f010000000000000000000000000000000000000000000000000000000000000090047f01000000000000000000000000000000000000000000000000000000000000000283838060010194508151811015156119b357fe5b9060200101907effffffffffffffffffffffffffffffffffffffffffffffffffffffffffffff1916908160001a905350808060010191505061193d565b82995050505050505050505095945050505050565b60008060008060009054906101000a900473ffffffffffffffffffffffffffffffffffffffff1673ffffffffffffffffffffffffffffffffffffffff161480611a7757506000611a756000809054906101000a900473ffffffffffffffffffffffffffffffffffffffff16611fb5565b145b15611a8857611a866000611fc0565b505b6000809054906101000a900473ffffffffffffffffffffffffffffffffffffffff1673ffffffffffffffffffffffffffffffffffffffff166338cc48316040518163ffffffff167c0100000000000000000000000000000000000000000000000000000000028152600401602060405180830381600087803b158015611b0d57600080fd5b505af1158015611b21573d6000803e3d6000fd5b505050506040513d6020811015611b3757600080fd5b810190808051906020019092919050505073ffffffffffffffffffffffffffffffffffffffff16600160009054906101000a900473ffffffffffffffffffffffffffffffffffffffff1673ffffffffffffffffffffffffffffffffffffffff16141515611c9f576000809054906101000a900473ffffffffffffffffffffffffffffffffffffffff1673ffffffffffffffffffffffffffffffffffffffff166338cc48316040518163ffffffff167c0100000000000000000000000000000000000000000000000000000000028152600401602060405180830381600087803b158015611c2357600080fd5b505af1158015611c37573d6000803e3d6000fd5b505050506040513d6020811015611c4d57600080fd5b8101908080519060200190929190505050600160006101000a81548173ffffffffffffffffffffffffffffffffffffffff021916908373ffffffffffffffffffffffffffffffffffffffff1602179055505b600160009054906101000a900473ffffffffffffffffffffffffffffffffffffffff1673ffffffffffffffffffffffffffffffffffffffff16632ef3accc86856040518363ffffffff167c01000000000000000000000000000000000000000000000000000000000281526004018080602001838152602001828103825284818151815260200191508051906020019080838360005b83811015611d50578082015181840152602081019050611d35565b50505050905090810190601f168015611d7d5780820380516001836020036101000a031916815260200191505b509350505050602060405180830381600087803b158015611d9d57600080fd5b505af1158015611db1573d6000803e3d6000fd5b505050506040513d6020811015611dc757600080fd5b81019080805190602001909291905050509050823a02670de0b6b3a764000001811115611dfa5760006001029150611fad565b600160009054906101000a900473ffffffffffffffffffffffffffffffffffffffff1673ffffffffffffffffffffffffffffffffffffffff1663c51be90f8260008888886040518663ffffffff167c0100000000000000000000000000000000000000000000000000000000028152600401808581526020018060200180602001848152602001838103835286818151815260200191508051906020019080838360005b83811015611eb9578082015181840152602081019050611e9e565b50505050905090810190601f168015611ee65780820380516001836020036101000a031916815260200191505b50838103825285818151815260200191508051906020019080838360005b83811015611f1f578082015181840152602081019050611f04565b50505050905090810190601f168015611f4c5780820380516001836020036101000a031916815260200191505b5096505050505050506020604051808303818588803b158015611f6e57600080fd5b505af1158015611f82573d6000803e3d6000fd5b50505050506040513d6020811015611f9957600080fd5b810190808051906020019092919050505091505b509392505050565b6000813b9050919050565b6000611fca6122c5565b9050919050565b6000606060008060008693506000925060009150600090505b83518110156122a65760307f010000000000000000000000000000000000000000000000000000000000000002848281518110151561202557fe5b9060200101517f010000000000000000000000000000000000000000000000000000000000000090047f0100000000000000000000000000000000000000000000000000000000000000027effffffffffffffffffffffffffffffffffffffffffffffffffffffffffffff19161015801561213d575060397f01000000000000000000000000000000000000000000000000000000000000000284828151811015156120cd57fe5b9060200101517f010000000000000000000000000000000000000000000000000000000000000090047f0100000000000000000000000000000000000000000000000000000000000000027effffffffffffffffffffffffffffffffffffffffffffffffffffffffffffff191611155b156121ee578115612160576000861415612156576122a6565b8580600190039650505b600a830292506030848281518110151561217657fe5b9060200101517f010000000000000000000000000000000000000000000000000000000000000090047f0100000000000000000000000000000000000000000000000000000000000000027f010000000000000000000000000000000000000000000000000000000000000090040383019250612299565b602e7f010000000000000000000000000000000000000000000000000000000000000002848281518110151561222057fe5b9060200101517f010000000000000000000000000000000000000000000000000000000000000090047f0100000000000000000000000000000000000000000000000000000000000000027effffffffffffffffffffffffffffffffffffffffffffffffffffffffffffff1916141561229857600191505b5b8080600101915050611fea565b60008611156122b85785600a0a830292505b8294505050505092915050565b6000806122e5731d3b2638a7cc9f2cb3d298a3da7a90b67e5506ed611fb5565b111561238657731d3b2638a7cc9f2cb3d298a3da7a90b67e5506ed6000806101000a81548173ffffffffffffffffffffffffffffffffffffffff021916908373ffffffffffffffffffffffffffffffffffffffff16021790555061237d6040805190810160405280600b81526020017f6574685f6d61696e6e6574000000000000000000000000000000000000000000815250612754565b60019050612751565b60006123a573c03a2615d5efaf5f49f60b7bb6583eaec212fdf1611fb5565b11156124465773c03a2615d5efaf5f49f60b7bb6583eaec212fdf16000806101000a81548173ffffffffffffffffffffffffffffffffffffffff021916908373ffffffffffffffffffffffffffffffffffffffff16021790555061243d6040805190810160405280600c81526020017f6574685f726f707374656e330000000000000000000000000000000000000000815250612754565b60019050612751565b600061246573b7a07bcf2ba2f2703b24c0691b5278999c59ac7e611fb5565b11156125065773b7a07bcf2ba2f2703b24c0691b5278999c59ac7e6000806101000a81548173ffffffffffffffffffffffffffffffffffffffff021916908373ffffffffffffffffffffffffffffffffffffffff1602179055506124fd6040805190810160405280600981526020017f6574685f6b6f76616e0000000000000000000000000000000000000000000000815250612754565b60019050612751565b600061252573146500cfd35b22e4a392fe0adc06de1a1368ed48611fb5565b11156125c65773146500cfd35b22e4a392fe0adc06de1a1368ed486000806101000a81548173ffffffffffffffffffffffffffffffffffffffff021916908373ffffffffffffffffffffffffffffffffffffffff1602179055506125bd6040805190810160405280600b81526020017f6574685f72696e6b656279000000000000000000000000000000000000000000815250612754565b60019050612751565b60006125e5736f485c8bf6fc43ea212e93bbf8ce046c7f1cb475611fb5565b111561264857736f485c8bf6fc43ea212e93bbf8ce046c7f1cb4756000806101000a81548173ffffffffffffffffffffffffffffffffffffffff021916908373ffffffffffffffffffffffffffffffffffffffff16021790555060019050612751565b60006126677320e12a1f859b3feae5fb2a0a32c18f5a65555bbf611fb5565b11156126ca577320e12a1f859b3feae5fb2a0a32c18f5a65555bbf6000806101000a81548173ffffffffffffffffffffffffffffffffffffffff021916908373ffffffffffffffffffffffffffffffffffffffff16021790555060019050612751565b60006126e97351efaf4c8b3c9afbd5ab9f4bbc82784ab6ef8faa611fb5565b111561274c577351efaf4c8b3c9afbd5ab9f4bbc82784ab6ef8faa6000806101000a81548173ffffffffffffffffffffffffffffffffffffffff021916908373ffffffffffffffffffffffffffffffffffffffff16021790555060019050612751565b600090505b90565b806002908051906020019061276a9291906127ee565b5050565b828054600181600116156101000203166002900490600052602060002090601f016020900481019282601f106127af57805160ff19168380011785556127dd565b828001600101855582156127dd579182015b828111156127dc5782518255916020019190600101906127c1565b5b5090506127ea919061286e565b5090565b828054600181600116156101000203166002900490600052602060002090601f016020900481019282601f1061282f57805160ff191683800117855561285d565b8280016001018555821561285d579182015b8281111561285c578251825591602001919060010190612841565b5b50905061286a919061286e565b5090565b61289091905b8082111561288c576000816000905550600101612874565b5090565b905600a165627a7a7230582099a67b13057216e3b520814b3ffd56c2b6dd3cb460a63aa6fcfe4d3e6ed0250f0029",
  "source": "pragma solidity ^0.4.24;\n\nimport \"oraclize-api/usingOraclize.sol\";\nimport \"./Evidencable.sol\";\n\ncontract YouTubeEvidences is usingOraclize {\n    string private constant HTML = \"html(https://www.youtube.com/watch?v=\";\n    string private constant XPATH = \").xpath(count(//div[contains(@id,'description')]//a[contains(@href,'\";\n\n    mapping(bytes32=>YouTubeEvidence) public evidences;\n\n    struct YouTubeEvidence {\n        address registry;\n        address evidencer;\n        string evidencedId;\n        string videoId;\n        bool isPending;\n        bool isVerified;\n    }\n\n    event OraclizeQuery(bytes32 evidenceId);\n\n    event YouTubeEvidenceEvent(bytes32 evidenceId, bytes32 indexed evidencedIdHash,\n        string videoId, address indexed evidencer);\n\n    constructor(uint gasPrice) public {\n        oraclize_setCustomGasPrice(gasPrice);\n    }\n\n    /// @notice Callback for the oracle for query `evidenceId` including the `properLinksCount\n    /// amount of links to the manifestation hash from the YouTube video description.\n    /// @dev There should be at least one proper link for the YouTubeEvidence to be verified.\n    /// @param evidenceId The identifier of the oracle query\n    /// @param properLinksCount The amount of proper links in the YouTube video description\n    function __callback(bytes32 evidenceId, string properLinksCount) public {\n        require(msg.sender == oraclize_cbAddress());\n        require(evidences[evidenceId].isPending);\n        evidences[evidenceId].isPending = false;\n\n        if (parseInt(properLinksCount) > 0) {\n            Evidencable(evidences[evidenceId].registry)\n                .addEvidence(evidences[evidenceId].evidencedId);\n            evidences[evidenceId].isVerified = true;\n            emit YouTubeEvidenceEvent(evidenceId, keccak256(evidences[evidenceId].evidencedId),\n                evidences[evidenceId].videoId, evidences[evidenceId].evidencer);\n        }\n    }\n\n    /// @notice Check using an oracle if the YouTube `videoId` is linked to the manifestation `hash`.\n    /// @dev The oracle checks if the YouTube page for the video contains a link in its description\n    /// pointing to the manifestation hash.\n    /// @param registry The address of the contract holding the items evidenced\n    /// @param evidencedId The identifier used by the registry contract for the item receiving evidence\n    /// @param videoId The identifier of a YouTube video to be checked\n    function check(address registry, string evidencedId, string videoId, uint gaslimit) public payable {\n        require(address(this).balance >= oraclize_getPrice(\"URL\", gaslimit), \"Not enough funds to run Oraclize query\");\n        string memory query = strConcat(HTML, videoId, XPATH, evidencedId, \"')]))\");\n        bytes32 evidenceId = oraclize_query(\"URL\", query, gaslimit);\n        evidences[evidenceId] = YouTubeEvidence(registry, msg.sender, evidencedId, videoId, true, false);\n        emit OraclizeQuery(evidenceId);\n    }\n\n    function getPrice(uint gaslimit) public constant returns (uint) {\n        return oraclize_getPrice(\"URL\", gaslimit);\n    }\n}\n",
  "sourcePath": "/Users/roberto/Proyectos/InVID/WP4/copyrightly.eth/contracts/YouTubeEvidences.sol",
  "compiler": {
    "name": "solc",
    "version": "0.4.24+commit.e67f0147.Emscripten.clang"
  },
  "schemaVersion": "2.0.1",
  "updatedAt": "2018-09-10T18:12:12.195Z"
}